:05027F00010800C100B0
:040006007F017E00F8
:0B000A00EF1FAC0670011E4C70F622C8
:09025200D293C292C294D295220B
:09025B00C293D292D294C2952202
:09026400C293D292C294D29522F9
:09026D00D293C292D294C29522F0
:09027600C293C292C294C2952207
:10023300C29FD29ED29C758920758780758DF37578
:0F0243008BF3D2ACD2AFD28ED288D2A8D2B22255
:1001B000120233300052E50824BE603A24FC60315C
:1001C00024FA603724FA603824F0601124F66012B3
:1001D00024FA6013240C702D120252800D12025B5F
:1001E0008008120264800312026DE4F508C20080E8
:1001F00017120252801212025B800D1202648008F4
:1002000012026D8003120276E50B24F8601624B604
:10021000600D24F86013244270141202528094126C
:10022000025B808F120264808A12026D8085120246
:0302300076808055
:03002300020015C3
:0E00150030980AC298859908850899D2003261
:03000300020026D2
:10002600C0E0C0D075D000C000C002C003C004C08C
:0500360005C006C00733
:10003B00750F007FBC7E0212000A30B20302011161
:10004B007BE87A0320B213D3EB9400EA9400400AC6
:10005B00120006EB1B70ED1A80EA20B203020111AD
:10006B007A017BF430B213D3EB9400EA9400400A8C
:10007B00120006EB1B70ED1A80EAE4FDEDC394044D
:10008B00748094804003020111751000C3E5109435
:10009B000874809480506B7A007B3C20B213D3EBB6
:1000AB009400EA9400400A120006EB1B70ED1A80D4
:1000BB00EA7A017BF430B224D3EB9400EA9400404B
:1000CB001B7F0A7E0012000A050FEB1B70011AD36F
:1000DB00E50F941E7480948040DB802A74092DF800
:1000EB00C000E6C313D000F6C3E50F9408748094E8
:1000FB0080400874092DF8E64480F6750F00051052
:06010B00808A0D0200874E
:10011100D007D006D005D004D003D002D000D0D073
:03012100D0E032F9
:03000000020124D6
:0C012400787FE4F6D8FD75812002016BA5
:100130000201B0E493A3F8E493A34003F68001F234
:1001400008DFF48029E493A3F85407240CC8C333D0
:10015000C4540F4420C8834004F456800146F6DF9F
:10016000E4800B010204081020408090027FE47EAE
:10017000019360BCA3FF543F30E509541FFEE49394
:10018000A360010ECF54C025E060A840B8E493A35B
:10019000FAE493A3F8E493A3C8C582C8CAC583CA86
:1001A000F0A3C8C582C8CAC583CADFE9DEE780BE3E
:010284000079
:00000001FF
